:0300000002476351
:0C476300787FE4F6D8FD7581230247AA98
:1049210001218001208059027D24505352463130AB
:10493100302C312C343830302C382C312C302A307A
:10494100430041074C00410243194102B3015702A0
:104951009724505352463130332C30322C30302C86
:1049610030302C30312A323141074D004102441799
:0549710042078F000069
:1000A600E49007D4F0A3F09008007407F0E4F58418
:1000B600900008E5EFF075FFDE75FFAD43B701125E
:1000C6004A6E124977124AB6124AF0124AD4124AB6
:1000D60044124B1E124B08900030E581F090000848
:1000E600E0B4080F900242E06009900784E06003E4
:1000F60002023AE4900262F0A3F0900262E0FEA3EC
:10010600E0FFC39410EE64809482501D74322FF584
:100116008274003EF5837480F0900263E004F07010
:10012600D9900262E004F080D1E490076AF0A3F06F
:10013600900262F0A3F0900307F090079DF09007FD
:100146008DF0900256F0900723F0900511F090077D
:100156007E04F0A3742CF09007A6123ECD0000009A
:100166000090078E741EF0E4900242F09002711225
:100176003ECD3F000000900512123ECD3F0000002C
:10018600900766123ECDC080000090025B7428F096
:100196009002557414F090077A123ECDC09000007C
:1001A600900264123ECD0000000090026D123ECD1A
:1001B60000000000E490027BF0A3F09002AF123E34
:1001C600CD00000000900780123ECD00000000E444
:1001D600900784F090027BF0A3F09007A6123ECD24
:1001E60000000000900743123ECD0000000090077B
:1001F60028123ECD0000000090076E123ECD000092
:100206000000900776123ECD0000000090074E12C7
:100216003ECD00000000900748123ECD00000000D1
:1002260090075E123ECD00000000900756123ECDAC
:1002360000000000E4F584C299758401D299900704
:100246008FF0A3F000900790E004F0700690078FFF
:10025600E004F090078FE0B427EAA3E0B410E5E4E9
:10026600900308F09002B3E06402705890080512FB
:100276003ECD00000000E47F107E27FDFC900805BF
:10028600E0F8A3E0F9A3E0FAA3E0FBC3123E28508E
:100296002800900805E0FCA3E0FDA3E0FEA3E0FF34
:1002A600E4FAF9F8EF2401FFEA3EFEE93DFDE83CF9
:1002B600FC900805123EC180BD7584019002B3749E
:1002C60003F0D299900256E0FF3395E0FE7C007D64
:1002D60019123D83900723E0FD3395E0FCEF2DFFD7
:1002E600EE3CFE900511E0FDFB3395E0FAC3EB9F73
:1002F600EE6480F8EA6480984003020A58EDFF3302
:1003060095E0FE74172FF58274003EF583E0FF54E6
:10031600C06440707C9007D4F0A3F0EF543F900780
:10032600D7F0E490000DF0A3F07F55124B559007DF
:1003360080E0FCA3E0FDA3E0FEA3E0547FFFEF44D2
:1003460080FFE4124B55900780A3A3E0FEA3E05480
:1003560080FFEE543FFEE4FD7807124B4C90078079
:10036600A3E0FDA3E0FEA3E4FFEE54C0FEED541FA0
:10037600FDE4780E124B4C900780E0FCA3E0FDA351
:10038600A3E4FFFEED54E0FDEC540FFC7815124B90
:100396004D900511E0FF3395E0FE74172FF582743A
:1003A600003EF583E0FF124B559007D4E0D36480FE
:1003B600948B4003740BF0900511E0FF3395E0FE3B
:1003C60074172FF58274003EF583E0547FFF900783
:1003D600D4E0FD3395E0FC74BA2DF58274073CF544
:1003E60083EFF09007D5E0FF9007D4E0FE04F0EE2F
:1003F600FD3395E0FC74BA2DF58274073CF583E075
:10040600FEEF6E9007D5F09007D4E0640360030218
:100416000846A3E060030208469007D7E0F96401A6
:100426007063300D03020A44D2159007BBE0FF3318
:1004360095E0FE90077EF0A3EFF07C007D0A123D6A
:1004460083EF2438FFEE34FFFE90077EF0A3EFF033
:10045600C39438EE6480947F500D90077E74FFF04D
:10046600A37438F0020A44D390077FE094E890071B
:100476007EE0648094835003020A447403F0A374FC
:10048600E8F0020A44E9640260030206489007BBEA
:10049600E0B4010E900242E07008D2171230F80262
:1004A6000A449007BBE0FFB402028004EFB4030ED7
:1004B600D215D20DE490077EF0A3F0020A44EF6451
:1004C6000460030205709000327459F0A37480F042
:1004D600900032E064804480900034F02012FDD217
:1004E60012E4900262F0A3F090076AF0A37403F09E
:1004F600E4F584D29990024204F0900722F0E0FBE2
:1005060075F004A42409F582E5F03403F583E0FCD4
:10051600A3E0FDA3E0FEA3E0FF900275123EC175C5
:10052600F004EBA4241EF582E5F03405F583E0FC27
:10053600A3E0FDA3E0FEA3E0FF9002B4123EC1904B
:100546000722E0FB75F004A42405F582E5F03403E8
:10055600F583E0FCA3E0FDA3E0FEA3E0FF90079196
:10056600123EC175F004EB02072C9007BBE0FBB40A
:100576000764D215E4900784F09007A6123ECD00DA
:10058600000000E490027BF0A3F0900743123ECDFA
:1005960000000000900728123ECD000000009007E2
:1005A6006E123ECD00000000900776123ECD000090
:1005B600000090074E123ECD000000009007481242
:1005C6003ECD0000000090075E123ECD0000000008
:1005D6009007560207F0EB640A6003020A44D2153C
:1005E600900722F0432103E0FB75F004A42409F5EB
:1005F60082E5F03403F583E0FCA3E0FDA3E0FEA36F
:10060600E0FF900275123EC175F004EBA4241EF5BE
:1006160082E5F03405F583E0FCA3E0FDA3E0FEA34C
:10062600E0FF9002B4123EC1900303E0FCA3E0FD9C
:10063600A3E0FEA3E0FF900791123EC190050902D8
:1006460007379007D7E0640370449007BBE0FFD3F9
:10065600648094914032EF648094E7502BE0FC1262
:100666003C549007DC123EC1E4FFFE7D707CC290D4
:1006760007DCE0F8A3E0F9A3E0FAA3E0FB123935C2
:10068600123C88900747EFF05321FC020A4490077A
:10069600D7E0FB64046003020748D2159007BBE06D
:1006A600FF900722F0900031E0FEEFD39E40030258
:1006B6000A44E52154FC4402F521900722E0FA752C
:1006C600F004A42409F582E5F03403F583E0FCA3E5
:1006D600E0FDA3E0FEA3E0FF900275123EC175F0B7
:1006E60004EAA4241EF582E5F03405F583E0FCA3B4
:1006F600E0FDA3E0FEA3E0FF9002B4123EC1900726
:1007060022E0FA75F004A42405F582E5F03403F539
:1007160083E0FCA3E0FDA3E0FEA3E0FF90079112B7
:100726003EC175F004EAA4241AF582E5F03405F515
:1007360083E0FCA3E0FDA3E0FEA3E0FF9007B20286
:1007460008A4EBB4050DD2159007BBE090078EF018
:10075600020A449007D7E0FFB40811D2159007BBF0
:10076600E090072CF0E024C4F0020A44EFB4090537
:10077600D215020A449007D7E0FFB40A0DD21590AD
:1007860007BBE0900722F0020A44EF640C7065D2C2
:1007960015C20DC20E9007BBE0FC123C5490074EEA
:1007A600123EC1E4FFFE7DC87C4290074EE0F8A3EE
:1007B600E0F9A3E0FAA3E0FB123BCC600F400D90FA
:1007C600074E123ECD42C80000020A44E4FFFEFD79
:1007D600FC90074EE0F8A3E0F9A3E0FAA3E0FB12D1
:1007E6003BCC4003020A4490074E123ECD00000067
:1007F60000020A449007D7E0FFB40D0DD21590070A
:10080600BBE090025BF0020A44EFB40E0DD21590E5
:1008160007BBE0900255F0020A449007D7E0640F48
:100826006003020A44D2159007BBE0FF3395E0FE51
:10083600EF24F6FDEE34FFFC123C4F900776805E07
:100846009007D7E06406705C9007D4E0640A7054A1
:10085600A3E06003020A44900303E0FCA3E0FDA3C7
:10086600E0FEA3E0FF900791123EC1900509E0FC6F
:10087600A3E0FDA3E0FEA3E0FF9007B2123EC1E5B0
:100886002154FC4401F5211241EE900275123EC13D
:100896007B017A0779BA7D051241F69002B4123EC1
:1008A600C1020A449007D7E0640B6003020A449031
:1008B60007D4E0640B6003020A44900242E060033E
:1008C600020A449007D5E06003020A449007C3E099
:1008D6009007D6F0C3648094FF4003020A44900058
:1008E60031E0FF9007D6E0FDFB3395E0FAD3EB9FAE
:1008F6007480F86A984005900031EDF01241EEC020
:1009060004C005C006C0079007D6E0FBFF3395E09C
:10091600FEEF7802C333CE33CED8F92409F58274BC
:10092600033EF583D007D006D005D004123EC1EBB6
:10093600705B900309E0FCA3E0FDA3E0FEA3E0FFEB
:10094600E4123C4A9007AA123EC1E4FBFA79707899
:10095600429007AAE0FCA3E0FDA3E0FEA3E0FF129D
:100966003B2F7B007A40791C7846123B2FE4FBFA3A
:1009760079B478C21239357BE17A2E7965784212DC
:100986003B2F1240AE9007AA123EC1D2197B017AC4
:100996000779BA7D051241F6C004C005C006C00736
:1009A6009007D6E0FF3395E0FEEF7802C333CE33EF
:1009B600CED8F9FBAA06241EF58274053AF583D033
:1009C60007D006D005D004123EC19000327458F00C
:1009D60074092BF58274033AF5831245579007D6AE
:1009E600E0FF3395E0FEEF7802C333CE33CED8F97D
:1009F600241EF58274053EF583E0FCA3E0FDA3E02A
:100A0600FEA3E0FF74051245649007D6E04480908B
:100A1600003BF07B017A0079327D0A1248C8EF4428
:100A26008090003CF02012FDD212E4900262F0A306
:100A3600F090076AF0A3740BF0E4F584D299900560
:100A460011E004F0E0C3648094994006E4F090025B
:100A560056F0201903021137E521540370030211E1
:100A660037201103021137900242E070030211375A
:100A7600C2119002B4E0FCA3E0FDA3E0FEA3E0FFF8
:100A8600E4123C4A9007E8123EC1900509E0FCA337
:100A9600E0FDA3E0FEA3E0FFE4123C4AA804A9059A
:100AA600AA06AB079007E8E0FCA3E0FDA3E0FEA3DF
:100AB600E0FF1239317BED7A0D793E783E123A2607
:100AC6009007AAE0F8A3E0F9A3E0FAA3E0FB123A44
:100AD600269007E8123EC1900275E0FCA3E0FDA354
:100AE600E0FEA3E0FFE4123C4A9007EC123EC19000
:100AF6000303E0FCA3E0FDA3E0FEA3E0FFE4123C59
:100B06004AA804A905AA06AB079007ECE0FCA3E0F7
:100B1600FDA3E0FEA3E0FF1239317BED7A0D793EAD
:100B2600783E123A269007EC123EC1E52154FC6449
:100B3600017003020F849007B2E0FCA3E0FDA3E07E
:100B4600FEA3E0FFE4123C4A9007F0123EC1900576
:100B560009E0FCA3E0FDA3E0FEA3E0FFE4123C4AAB
:100B6600A804A905AA06AB079007F0E0FCA3E0FDE0
:100B7600A3E0FEA3E0FF1239317BED7A0D793E78D2
:100B86003E123A269007AAE0F8A3E0F9A3E0FAA3FA
:100B9600E0FB123A269007F0123EC1900791E0FC66
:100BA600A3E0FDA3E0FEA3E0FFE4123C4A9007F4B5
:100BB600123EC1900303E0FCA3E0FDA3E0FEA3E028
:100BC600FFE4123C4AA804A905AA06AB079007F45D
:100BD600E0FCA3E0FDA3E0FEA3E0FF1239317BEDCC
:100BE6007A0D793E783E123A269007F4123EC1906D
:100BF60007ECE0FCA3E0FDA3E0FEA3E0FFA804A948
:100C060005AA06FB123A26C004C005C006C0079016
:100C160007E8E0FCA3E0FDA3E0FEA3E0FFA804A92B
:100C260005AA06FB123A26D003D002D001D0001244
:100C3600393512461E9007DC123EC19007DCE0FCF7
:100C4600A3E0FDA3E0FEA3E0FFE4FBFA79C8784346
:100C5600123BCC60025003020D00900031E0FF9081
:100C66000722E0FE6F7003020D00EE7003020D0016
:100C760004F0E0FB75F004A42409F582E5F03403E2
:100C8600F583E0FCA3E0FDA3E0FEA3E0FF90027580
:100C9600123EC175F004EBA4241EF582E5F034057E
:100CA600F583E0FCA3E0FDA3E0FEA3E0FF9002B421
:100CB600123EC1900722E0FB75F004A42405F582DC
:100CC600E5F03403F583E0FCA3E0FDA3E0FEA3E03A
:100CD600FF900791123EC175F004EBA4241AF58229
:100CE600E5F03405F583E0FCA3E0FDA3E0FEA3E018
:100CF600FF9007B2123EC1020A789007F4E0F8A30B
:100D0600E0F9A3E0FAA3E0FB9007ECE0FCA3E0FD2A
:100D1600A3E0FEA3E0FF123931124B3F7BF37AFFCB
:100D2600797F7833123BCC403B9007F0E0F8A3E0A4
:100D3600F9A3E0FAA3E0FB9007E8E0FCA3E0FDA33B
:100D4600E0FEA3E0FF123931124B3F7BF37AFF79C5
:100D56007F7833123BCC400C9007E0123ECD00006A
:100D66000000805D9007F0E0F8A3E0F9A3E0FAA3A5
:100D7600E0FB9007E8E0FCA3E0FDA3E0FEA3E0FFB4
:100D8600123931C004C005C006C0079007F4E0F868
:100D9600A3E0F9A3E0FAA3E0FB9007ECE0FCA3E0F4
:100DA600FDA3E0FEA3E0FF123931900811123EC107
:100DB600D007D006D005D0041246C69007E0123EF2
:100DC600C19007ECE0FCA3E0FDA3E0FEA3E0FF1268
:100DD6004B3F7BF37AFF797F7833123BCC402A90E6
:100DE60007E8E0FCA3E0FDA3E0FEA3E0FF124B3F13
:100DF6007BF37AFF797F7833123BCC400C9007D88F
:100E0600123ECD00000000802B9007ECE0FCA3E032
:100E1600FDA3E0FEA3E0FF900811123EC19007E893
:100E2600E0FCA3E0FDA3E0FEA3E0FF1246C69007A8
:100E3600D8123EC19007D8E0FCA3E0FDA3E0FEA3D4
:100E4600E0FF9007E0E0F8A3E0F9A3E0FAA3E0FBF7
:100E56001239319007D8123EC19007D8E0FCA3E0C2
:100E6600FDA3E0FEA3E0FF1240C49007DCE0F8A378
:100E7600E0F9A3E0FAA3E0FB123A269007E4123E5B
:100E8600C19007E4E0FCA3E0FDA3E0FEA3E0FF12AF
:100E96004B3FE4FBFA79FA7843123BCC9007DC50DF
:100EA60009123ECD434800008007123ECD43FA00AA
:100EB600009007E0E0FCA3E0FDA3E0FEA3E0FF1244
:100EC60040C49007DCE0F8A3E0F9A3E0FAA3E0FB56
:100ED600123A26C004C005C006C0079007E0E0FC31
:100EE600A3E0FDA3E0FEA3E0FF1240AE9007E4E01E
:100EF600F8A3E0F9A3E0FAA3E0FB123A26D003D068
:100F060002D001D0001239359007E8123EC1900791
:100F1600E0E0FCA3E0FDA3E0FEA3E0FF1240C4C0B6
:100F260004C005C006C0079007E4E0FCA3E0FDA3EB
:100F3600E0FEA3E0FF123C39D003D002D001D0007E
:100F4600123A26C004C005C006C0079007E0E0FCC0
:100F5600A3E0FDA3E0FEA3E0FF1240AE9007DCE0B5
:100F6600F8A3E0F9A3E0FAA3E0FB123A26D003D0F7
:100F760002D001D0001239359007EC123EC1900222
:100F860079E0FCA3E0FDEC123C4F9007DC123EC179
:100F96009007DCE0FCA3E0FDA3E0FEA3E0FF123C2B
:100FA600397BE17A2E79657842123B2F9007DC1265
:100FB6003EC19007ECE0FCA3E0FDA3E0FEA3E0FF4A
:100FC600124B3F7BF37AFF797F7833123BCC506626
:100FD6009007E8E0FCA3E0FDA3E0FEA3E0FF124BD0
:100FE6003F7BF37AFF797F7833123BCC50489007EA
:100FF600DCE0F8A3E0F9A3E0FAA3E0FBC000C0013F
:10100600C002C0039007ECE0FCA3E0FDA3E0FEA352
:10101600E0FF900811123EC19007E8E0FCA3E0FD56
:10102600A3E0FEA3E0FF1246C6D003D002D001D053
:101036000012393580367FDB7E0F7D497C40900774
:10104600DCE0F8A3E0F9A3E0FAA3E0FB123BCC60F6
:101056002340219007DCE0FCA3E0FDA3E0FEA3E033
:10106600FF7BDB7A0F79C978401239319007DC12A1
:101076003EC180C27FDB7E0F7D497CC09007DCE0ED
:10108600F8A3E0F9A3E0FAA3E0FB123BCC502190D1
:1010960007DCE0FCA3E0FDA3E0FEA3E0FF7BDB7A38
:1010A6000F79C978401239359007DC123EC180C4E9
:1010B6009007DCE0FCA3E0FDA3E0FEA3E0FF7BE1FC
:1010C6007A2E79657842123A269007DC123EC1E400
:1010D600FFFE7D287C429007DCE0F8A3E0F9A3E060
:1010E600FAA3E0FB123BCC600E400C9007DC123EEC
:1010F600CD422800008024E4FFFE7D287CC29007B4
:10110600DCE0F8A3E0F9A3E0FAA3E0FB123BCC5045
:101116000A9007DC123ECDC22800009007DCE0FCF6
:10112600A3E0FDA3E0FEA3E0FF123C88900747EF93
:10113600F0900307E0FF3395E0FE7C007D4B123D07
:101146008390079DE0FD3395E0FCEF2DFFEE3CFE1E
:1011560090078DE0FDFB3395E0FAC3EB9FEE6480CC
:10116600F8EA648098400302161AEDFF3395E0FE14
:1011760074B82FF58274023EF583E0FFB42408E4C8
:10118600900800F0021606900800E0FE7006EFB424
:1011960047028065EEB4011C90078DE0FF3395E0B1
:1011A600FE74B82FF58274023EF583E0B4500590C4
:1011B60008008045900800E0B4021C90078DE0FF0F
:1011C6003395E0FE74B82FF58274023EF583E0B4E1
:1011D60052059008008022900800E0FFB40320909A
:1011E600078DE0FD3395E0FC74B82DF58274023C62
:1011F600F583E0B44D09900800E004F0021606EF0E
:10120600B4042790078DE0FF3395E0FE74B82FF500
:101216008274023EF583E0B44310900800E004F0C7
:10122600E49007F9F0C21B02160690078DE0FF3323
:1012360095E0FE74B82FF58274023EF583E0FFB4A4
:101246002C109007F9E004F0E49007F8F0C21C02B5
:1012560016069007F9E0FBB40212EFB44105D21B63
:10126600021606C21BD214D2170215B6201B0302A1
:101276001606EB6403705390078DE0FF3395E0FE8E
:1012860074B82FF58274023EF583E0FFB42E030294
:101296001396301C030215CF9007F8E0FE04F07495
:1012A600FA2EF582E43407F583EFF09007F8E0FFB5
:1012B600B402030213C19007F8E0FF64046003025E
:1012C60016069007FB74300214119007F9E06404C7
:1012D6006003021373900801E0F8A3E0F9A3E0FAB3
:1012E600A3E0FBC000C001C002C0037B017A0779FE
:1012F600FA12447CEE3395E0FDFCD003D002D00117
:10130600D000EB2FFFEA3EFEE93DFDE83CFC9008ED
:1013160001123EC190078DE0FF3395E0FE74B82FB1
:10132600F58274023EF583E0900801B4531DE0F89F
:10133600A3E0F9A3E0FAA3E0FBC374809BFF74F972
:101346009AFE743799FD7403988018E0FCA3E0FDBB
:10135600A3E0FEA3E02480FFEE34F9FEED3437FD72
:10136600EC3403FC900303123EC10215B69007F954
:10137600E06405600302146E90078DE0FF3395E08C
:10138600FE74B82FF58274023EF583E0FFB42E0A90
:10139600D21CE49007F8F0021606301C0302146B08
:1013A6009007F8E0FE04F074FA2EF582E43407F5AF
:1013B60083EFF09007F8E0FFB4033B24FAF582E4EC
:1013C6003407F583E4F07B017A0779FA12447CEE60
:1013D6003395E0FDFC900801123EC1900801E0FC47
:1013E600A3E0FDA3E0FEA3E0FF7BC07A277909789E
:1013F60000123DCB80699007F8E0FF6405600302A8
:1014060016069007FC7430F09007FBF09007FAF090
:1014160074FA2FF582E43407F583E4F0900801E0CE
:10142600F8A3E0F9A3E0FAA3E0FBC000C001C00204
:10143600C0037B017A0779FA12447CEE3395E0FD0E
:10144600FCE47B107A27F9F8123DCBD003D002D00A
:1014560001D000EB2FFFEA3EFEE93DFDE83CFC90A3
:1014660008010215C70215CF9007F9E0640660036C
:1014760002150D900801E0F8A3E0F9A3E0FAA3E055
:10148600FBC000C001C002C0037B017A0779FA12D3
:10149600447CEE3395E0FDFCD003D002D001D000B1
:1014A600EB2FFFEA3EFEE93DFDE83CFC9008011209
:1014B6003EC190078DE0FF3395E0FE74B82FF582AC
:1014C60074023EF583E0900801B4571CE0F8A3E0EF
:1014D600F9A3E0FAA3E0FBC3E49BFF74F39AFE745E
:1014E6006F99FD7406988018E0FCA3E0FDA3E0FE6A
:1014F600A3E02400FFEE34F3FEED346FFDEC34067A
:10150600FC9005090215C79007F9E0640770529030
:10151600078DE0FF3395E0FE74B82FF58274023E26
:10152600F583E0B42E33D21C7B017A0779FA124494
:101536007CAC06AD07EC123C4F7B567A0E79ED7803
:101546003F123A267466FBFAF97840123B2F123C9A
:101556008890073DEFF0021606301C03021606803F
:10156600689007F9E06408600302160690078DE0AC
:10157600FF3395E0FE74B82FF58274023EF583E0E2
:10158600642E7042D21C7B017A0779FA12447C9051
:101596000279EEF0A3EFF0C3EE64809480500BE086
:1015A6002468F0900279E03401F0C214D217D21107
:1015B600900780E0FCA3E0FDA3E0FEA3E0FF90021D
:1015C600AF123EC1803A201C3790078DE0FF33955D
:1015D600E0FE74B82FF58274023EF583E0FF9007B3
:1015E600F8E0FE04F074FA2EF582E43407F583EF92
:1015F600F09007F8E024FAF582E43407F583E4F086
:1016060090078DE004F0E0C3648094CB4006E4F0DC
:10161600900307F0900784E060030218E6201303A6
:101626000218E6C21390027BE0FAA3E0FBC39432F1
:10163600EA9400500D900748123ECD0000000002CB
:1016460018E6AD03AC02E4123C4FE4FBFA79C87825
:1016560042123BCC600F400D900748123ECD41C868
:1016660000000218E690027BE0FCA3E0FDE4123CD9
:101676004FE4FBFA79167843123BCC600F400D908D
:101686000748123ECDC1C800000218E690027BE072
:10169600FCA3E0FDE4123C4FE4FBFA7948784312E0
:1016A6003BCC60124010900748123ECD000000006F
:1016B60090076E02175390027BE0FCA3E0FDE41254
:1016C6003C4FE4FBFA797A7843123BCC600F400D2D
:1016D60090076E123ECDC1F000000218E690027B24
:1016E600E0FCA3E0FDE4123C4FE4FBFA7996784374
:1016F600123BCC6011400F90076E123ECD000000E9
:1017060000900776804790027BE0FCA3E0FDE412A0
:101716003C4FE4FBFA79AF7843123BCC60084006B5
:101726009007760217D390027BE0FCA3E0FDE4125B
:101736003C4FE4FBFA79C87843123BCC601940175A
:10174600900776123ECD0000000090075E123ECD57
:10175600424800000218E690027BE0FCA3E0FDE4AC
:10176600123C4FE4FBFA79E17843123BCC600F4020
:101776000D90075E123ECDC24800000218E69002A8
:101786007BE0FCA3E0FDE4123C4FE4FBFA79FA7837
:1017960043123BCC6019401790075E123ECD000005
:1017A6000000900756123ECD412000000218E69038
:1017B600027BE0FCA3E0FDE4123C4F7B007A8079DB
:1017C600097844123BCC600F400D900756123ECD6F
:1017D600C12000000218E690027BE0FCA3E0FDE4D5
:1017E600123C4FE4FBFA79167844123BCC60114068
:1017F6000F900756123ECD0000000090074E805114
:1018060090027BE0FCA3E0FDE4123C4F7B007A8073
:1018160079227844123BCC6011400F90074E123E5D
:10182600CD00000000900728802790027BE0FCA3F3
:10183600E0FDE4123C4FE4FBFA792F7844123BCCEE
:1018460060194017900728123ECD0000000090074F
:1018560043123ECD42C800000218E6900743123EEE
:10186600CD0000000090025EE0FCA3E0FDA3E0FED8
:10187600A3E0FF9007A6123EC1900772123ECD006C
:1018860000000090025E123ECD00000000900303AF
:10189600E0FCA3E0FDA3E0FEA3E0FF900785123E77
:1018A600C1900303E0FCA3E0FDA3E0FEA3E0FF90EC
:1018B6000795123EC1900785E0FCA3E0FDA3E0FE7C
:1018C600A3E0FFE4123C4A7BE17A2E796578421266
:1018D6003A26123C88900742EFF09007847401F094
:1018E600900784E07003021CDD201303021CDDC296
:1018F60013E4FFFEFD7C40900789E0F8A3E0F9A31E
:10190600E0FAA3E0FB123A26E4FBFAF9783E123B32
:101916002F90072DE0F8A3E0F9A3E0FAA3E0FB126D
:101926003B2F9007DC123EC1E4FFFEFDFC9007DC76
:10193600E0F8A3E0F9A3E0FAA3E0FB123BCC601BBE
:1019460040199007DCE0FCA3E0FDA3E0FEA3E0FF66
:1019560012461E900752123EC1800A900752123E4E
:10196600CD337FFFF37FF37EFF7D7F7C339007527D
:10197600E0F8A3E0F9A3E0FAA3E0FB123BCC500A9F
:10198600900752123ECD337FFFF390075AE0F8A33B
:10199600E0F9A3E0FAA3E0FBC000C001C002C00367
:1019A600900257E0F8A3E0F9A3E0FAA3E0FB900762
:1019B60052E0FCA3E0FDA3E0FEA3E0FF123931E410
:1019C600FBFA79487842123A2690075AE0F8A3E0E3
:1019D600F9A3E0FAA3E0FB123931E4FBFA7948787F
:1019E60042123B2F7BCD7ACC79CC783E123B2FD05E
:1019F60003D002D001D00012393590075A123EC1E9
:101A0600900752E0FCA3E0FDA3E0FEA3E0FF9002F6
:101A160057123EC190077EE0FCA3E0FDEC123C4F5E
:101A260090025EE0F8A3E0F9A3E0FAA3E0FB123926
:101A360031C004C005C006C007E4FFFE7D407C40FF
:101A4600900271E0F8A3E0F9A3E0FAA3E0FB123AF2
:101A560026A804A905AA06AB07D007D006D005D04C
:101A660004123BCC4003021C76200E03021AF390AC
:101A7600073DE0FCE4123C54900752E0F8A3E0F97D
:101A8600A3E0FAA3E0FB123931C004C005C006C0CA
:101A96000790078EE0FC123C54D003D002D001D050
:101AA600001239319007DC123EC17F567E557D8586
:101AB6007C419007DCE0F8A3E0F9A3E0FAA3E0FBA1
:101AC600123BCC500A9007DC123ECD41855556900C
:101AD6000752E0F8A3E0F9A3E0FAA3E0FB9007DCE5
:101AE600E0FCA3E0FDA3E0FEA3E0FF801690075212
:101AF600E0F8A3E0F9A3E0FAA3E0FB7FE47E387DFB
:101B0600DE7C411239317B9A7A99791978BE123A7C
:101B160026900809123EC1200A10900271123ECD8D
:101B26003F000000900512021C6F900512E0F8A31A
:101B3600E0F9A3E0FAA3E0FBC000C001C002C003C5
:101B46007F9A7E997D997C3D900809E0F8A3E0F99B
:101B5600A3E0FAA3E0FB123A26E4FBFA79487842BE
:101B6600123B2FD003D002D001D000123935900598
:101B760012123EC190025BE0FC123C547BCD7ACC43
:101B860079CC783D123A26900512E0F8A3E0F9A345
:101B9600E0FAA3E0FB123BCC601D401B90025BE029
:101BA600FC123C547BCD7ACC79CC783D123A269007
:101BB6000512123EC18023E4FFFEFD7C3F90051214
:101BC600E0F8A3E0F9A3E0FAA3E0FB123BCC500A4D
:101BD600900512123ECD3F0000007F9A7E997D99B6
:101BE6007C3E900809E0F8A3E0F9A3E0FAA3E0FB45
:101BF600123A26900512E0F8A3E0F9A3E0FAA3E072
:101C0600FB123935900271123EC190025BE0FC1264
:101C16003C547BCD7ACC79CC783D123A2690027131
:101C2600E0F8A3E0F9A3E0FAA3E0FB123BCC601DC9
:101C3600401B90025BE0FC123C547BCD7ACC79CC05
:101C4600783D123A26900271123EC18023E4FFFECF
:101C5600FD7C3F900271E0F8A3E0F9A3E0FAA3E06F
:101C6600FB123BCC500A900271123ECD3F000000A1
:101C7600900242E060031230F89002AFE0F8A3E071
:101C8600F9A3E0FAA3E0FB900780E0FCA3E0FDA344
:101C9600E0FEA3E0C39BFFEE9AFEED99FDEC98FCF7
:101CA600E47B64FAF9F8C3123E285018D214900760
:101CB60080E0FCA3E0FDA3E0FEA3E0FF9002AF12EC
:101CC6003EC1D217900030E0D39464400A9007DCFE
:101CD600123ECD3F8000002099030202659002B3B8
:101CE600E0FFB40131900243E0FE90074CE0FDC3F3
:101CF600EE6480F8ED6480985014E0FE04F0EEFD8A
:101D06003395E0FC747D2DF58274023C805490027C
:101D1600B37402F08058EF6403705390078FF0A3FA
:101D2600F000900790E004F0700690078FE004F052
:101D360090078FE07004A3E0646470E5900244E0CD
:101D4600FF90074DE0FEC3EF6480F8EE6480985084
:101D560018E0FF04F0EF3395E0FE74972FF58274D8
:101D6600023EF583E0F5998005E49002B3F0C2994E
:031D760002026501
:1030F800900242E06065E47B32FAF9F8900780E0DC
:10310800FCA3E0FDA3E0FEA3E0FF1249C8E47B3284
:10311800FAF9F8123DCB90080E123EC1900780E0F4
:10312800FCA3E0FDA3E0FEA3E0FF90080EE0F8A3F7
:10313800E0F9A3E0FAA3E0FBC3EF9BFFEE9AFEEDF4
:1031480099FDEC98FCE4FBFAF9F8C3123E3E7003D3
:1031580002392DB21030100302392D2012FDE490EF
:103168000262F0A3F03018030233C49000327455A1
:10317800F0900780124557900008E044809000378F
:10318800F0A37480F0A3F0A3F0A3F0A3F0A3F0A33E
:10319800F0A3F09007B612485CE4FFFE7D487C443B
:1031A800900000E0F8A3E0F9A3E0FAA3E0FB1239ED
:1031B80035E4FBFA79207841123A26123C887D16CC
:1031C800124880E4FFFE7D487C44900004E0F8A3A8
:1031D800E0F9A3E0FAA3E0FB123935E4FBFA792021
:1031E8007841123A26123C887D181248807BE17A91
:1031F8002E79657842900731E0FCA3E0FDA3E0FE5C
:10320800A3E0FF123B2F7B007A40791C7845123AE5
:1032180026E4FBFA79FA7845123935123C887D2084
:103228001248807BE17A2E79657842900739E0FC74
:10323800A3E0FDA3E0FEA3E0FF123B2F7B007A4052
:10324800791C7845123A26E4FBFA79FA784512395E
:1032580035123C887D221248807BE17A2E79657888
:103268004290073EE0FCA3E0FDA3E0FEA3E0FF12CE
:103278003B2F7B007A40791C7845123A26E4FBFA0A
:1032880079FA7845123935123C887D241248807BBA
:10329800E17A2E79657842900009E0FCA3E0FDA36D
:1032A800E0FEA3E0FF123B2F7B007A40791C7845B3
:1032B800123A26E4FBFA79FA7845123935123C8835
:1032C8007D261248807BE17A2E7965784290000F3E
:1032D800E0FCA3E0FDA3E0FEA3E0FF123B2F7B0090
:1032E8007A40791C7845123A26E4FBFA79FA78454F
:1032F800123935123C887D281248807BE17A2E7974
:10330800657842900013E0FCA3E0FDA3E0FEA3E093
:10331800FF123B2F7B007A40791C7845123A26E44D
:10332800FBFA79FA7845123935123C887D2A124819
:10333800807F007E407D9C7C4590025EE0F8A3E0A3
:10334800F9A3E0FAA3E0FB123935123C887D2C1270
:103358004880E4FFFE7D207C41900752E0F8A3E01E
:10336800F9A3E0FAA3E0FB123A26123C887D2E125C
:103378004880900030E0C3134480900062F0E4A3DA
:10338800F090080DF090080DE0FFC3648094B150F0
:1033980025900063E0FEEFFD3395E0FC74322DF5D7
:1033A8008274003CF583E0FFEE6F900063F09008B4
:1033B8000DE004F080CF90006302379290003274E1
:1033C80056F0900747E0243C4480900033F0E4FF37
:1033D800FE7DF07C4190077AE0F8A3E0F9A3E0FADB
:1033E800A3E0FB123935E4FBFA79C87842123A2691
:1033F800123C887D02124880E4FFFE7DF07C4190FB
:103408000264E0F8A3E0F9A3E0FAA3E0FB1239357F
:10341800E4FBFA79C87842123A26123C887D0412F5
:103428004880E4FFFE7DF07C4190076EE0F8A3E061
:10343800F9A3E0FAA3E0FB123935E4FBFA79C8787E
:1034480042123A26123C887D06124880E4FFFE7D2F
:10345800F07C41900748E0F8A3E0F9A3E0FAA3E084
:10346800FB123935E4FBFA79C87842123A26123C45
:10347800887D08124880E4FFFE7DC87C4290027176
:10348800E0F8A3E0F9A3E0FAA3E0FB123A26123C25
:10349800887D0A12488090074EE0FCA3E0FDA3E077
:1034A800FEA3E0FF123C88EF448090003EF0A37436
:1034B80080F090026CE0FC123C547BE17A2E796536
:1034C8007842123B2F7B007A40791C7845123A26C5
:1034D800E4FBFA79FA7845123935123C887D0E12E8
:1034E80048809002AEE0FC123C547BE17A2E79656C
:1034F8007842123B2F7B007A40791C7845123A2695
:10350800E4FBFA79FA7845123935123C887D1012B5
:103518004880E5214480900044F0E5204480A3F0F1
:1035280090075A12485CE4FFFE7D487C449002688C
:10353800E0F8A3E0F9A3E0FAA3E0FB123935E4FBD5
:10354800FA79207841123A26123C887D1612488072
:103558007BE17A2E7965784290026DE0FCA3E0FD6C
:10356800A3E0FEA3E0FF123B2F7B007A40791C7892
:1035780045123A26E4FBFA79FA7845123935123CB5
:10358800887D18124880E4FFFE7D207C41900776F4
:10359800E0F8A3E0F9A3E0FAA3E0FB123935123C06
:1035A80088EF448090004CF0A37480F0E4A3F0907E
:1035B800080DF090080DE0FFC36480949C5025909E
:1035C800004EE0FEEFFD3395E0FC74322DF5827479
:1035D800003CF583E0FFEE6F90004EF090080DE0A0
:1035E80004F080CF90004EE04480F090076AE4F049
:1035F800A3741DF02017030237A2C21790076AE0D0
:10360800FEA3E0FF2432F58274003EF5837454F083
:103618002014030236AF74332FF58274003EF5830D
:103628007480F074342FF58274003EF5837480F052
:1036380074352FF58274003EF5837480F074362F4C
:10364800F58274003EF58374FFF074372FF58274A9
:10365800003EF5837480F074382FF58274003EF5CF
:10366800837480F074392FF58274003EF58374807A
:10367800F0743A2FF58274003EF5837480F0743B41
:103688002FF58274003EF5837480F0743C2FF58228
:1036980074003EF5837480F0743D2FF58274003E0B
:1036A800F5837480F0806390076AA3E0049008169D
:1036B800F0900303E0FCA3E0FDA3E0FEA3E0FF120B
:1036C800456890076AA3E02405900816F09005095C
:1036D800E0FCA3E0FDA3E0FEA3E0FF124568900232
:1036E80079E0FEA3E0FF90076AA3E02409FD1248F1
:1036F8008090073DE04480FF90076AE0FCA3E02447
:103708003DF58274003CF583EFF090076AE0FEA374
:10371800E0FF2446F58274003EF583E4F090080D3E
:10372800EFF090076AE0FEA3E0FF2414FDE43EFCFE
:1037380090080DE0FB3395E0FAC3EB9DEC6480F84C
:10374800EA648098503474462FF58274003EF583FD
:10375800C083C082E0FF90080DE0FD3395E0FC7463
:10376800322DF58274003CF583E0FEEF6ED082D0F6
:1037780083F090080DE004F080A890076AE0FEA3AB
:10378800E02446F58274003EF583E04480F090071B
:103798006AE4F0A37432F0023924201503023924B4
:1037A800C21590076AE0FAA3E0FB2432F5827400A0
:1037B8003AF5837457F090077FE024C8FF90077E9E
:1037C800E03400FE7C007D0A123D95EF4480FF74D2
:1037D800332BF58274003AF583EFF090074EE0FC46
:1037E800A3E0FDA3E0FEA3E0FF123C88EF4480FFC6
:1037F80090076AE0FCA3E0FD2434F58274003CF5F0
:1038080083EFF0900722E04480FF74352DF5827431
:10381800003CF583EFF090078EE04480FF74362D6E
:10382800F58274003CF583EFF090025BE04480FF82
:1038380074372DF58274003CF583EFF0900255E063
:103848004480FF74382DF58274003CF583EFF090C6
:10385800072CE0243C4480FF74392DF58274003C29
:10386800F583EFF0E4FFFE7D207C41900776E0F8D9
:10387800A3E0F9A3E0FAA3E0FB123935123C88EF84
:103888004480FF90076AE0FCA3E0FD243BF58274C6
:10389800003CF583EFF0743C2DF58274003CF58311
:1038A800E4F090080DEDF090076AE0FEA3E0FF2435
:1038B8000AFDE43EFC90080DE0FB3395E0FAC3EB0B
:1038C8009DEC6480F8EA6480985034743C2FF5824B
:1038D80074003EF583C083C082E0FF90080DE0FDD0
:1038E8003395E0FC74322DF58274003CF583E0FEDC
:1038F800EF6ED082D083F090080DE004F080A8909D
:10390800076AE0FEA3E0243CF58274003EF583E0FC
:103918004480F090076AE4F0A37430F0B218D21231
:05392800E4F584D299D2
:01392D002277
:10485C00E4FFFE7D487C44E0F8A3E0F9A3E0FAA372
:10486C00E0FB123935E4FBFA79207841123A261232
:04487C003C887D14E3
:10488000900812EEF0A3EFF0547F4480FFEDFB336D
:1048900095E0FA74322BF58274003AF583EFF090CC
:1048A0000812E0543FFEA3E054807807CEC313CE35
:1048B00013D8F94480FFED3395E0FC74332DF58275
:0848C00074003CF583EFF022C7
:10455700E0FCA3E0FDA3E0FEA3E0FF7401900816D2
:01456700F063
:10456800900812123EC1900812A3A3A3E0547FFF43
:10457800EF4480FFA3E0FBFD3395E0FC74322DF59A
:104588008274003CF583EFF0900812A3A3E0FEA329
:10459800E05480FFEE543FFEE4FDFC7807123E4FE6
:1045A800EF4480FFEB3395E0FA74332BF582740007
:1045B8003AF583EFF0900812A3E0FDA3E0FEA3E430
:1045C800FFEE54C0FEED541FFDE4FC780E123E4F82
:1045D800EF4480FF74342BF58274003AF583EFF0D2
:1045E800900812E0FCA3E0FDA3A3E4FFFEED54E075
:1045F800FDEC540FFC7815123E4FEF4480FFA3E00A
:10460800FD3395E0FC74352DF58274003CF583EF9D
:02461800F0228E
:0E48C80090080DEBF0A3EAF0A3E9F0A3EDF0E9
:1048D600E4900812F0900811F0900810E0FFA3E0B1
:1048E600FEC3EF6480F8EE6480985029A3E0FF9041
:1048F600080DE0FBA3E0FAA3E0F9EEFD3395E08DA9
:1049060082F583123D56FEEF6E900812F090081164
:0A491600E004F080C4900812E0FFF6
:014920002274
:0841EE007B017A0779BA7D011B
:0E41F60090080DEBF0A3EAF0A3E9F0A3EDF0C2
:1042040090080DE0FBA3E0FAA3E0F9A3E0FF3395E7
:10421400E08F82F583123D56547FFF3395E0FEFD17
:10422400FC900811123EC1900810E0FF3395E08F16
:1042340082F583A3123D56547FFF3395E0FEFDFCC7
:10424400900815123EC1900811E0F8A3E0F9A3E02C
:10425400FAA3E0FBC000A3E0FCA3E0FDA3E0FEA3FF
:10426400E0FF7807123E76D000EB2FFFEA3EFEE92E
:104274003DFDE83CFC900811123EC1900810E0FF9F
:104284003395E0FEEF2402FFE43EFE90080DE0FBD0
:10429400A3E0FAA3E0F98F828E83123D56547FFF88
:1042A4003395E0FEFDFC900815123EC1900811E024
:1042B400F8A3E0F9A3E0FAA3E0FBC000A3E0FCA3A9
:1042C400E0FDA3E0FEA3E0FF780E123E76D000EB03
:1042D4002FFFEA3EFEE93DFDE83CFC900811123E4A
:1042E400C1900810E0FF3395E0FEEF2403FFE43EA5
:1042F400FE90080DE0FBA3E0FAA3E0F98F828E8321
:10430400123D56547FFF3395E0FEFDFC90081512D4
:104314003EC1900811E0F8A3E0F9A3E0FAA3E0FBA2
:10432400C000A3E0FCA3E0FDA3E0FEA3E0FF78153A
:10433400123E76D000EB2FFFEA3EFEE93DFDE83C5D
:10434400FC900811123EC1900811E0FCA3E0FDA30B
:05435400E0FEA3E0FF04
:014359002241
:10497700E4FFFEF58475B71075840F758C670FBF5C
:1049870000010EE4B507F7EEB401F3E58C30E7FB61
:10499700759701E4F58A758905F58475B7107584EF
:1049A7000F438902758D04758E09758F01FEFF0F00
:1049B700BF00010EEF643C4E70F543890275970204
:0149C70022CD
:104A6E0075840F75E106E4F5E275E34475840F7500
:104A7E00A475F5A5F5A675A73FF59CF59DF59EF5D4
:054A8E009F75ADFF2241
:104B0800E4F584F5EF75A892F5E675E74075B810F9
:064B1800F5F675F74022DE
:104AB600E4F58475C90875CACA75CBFFF5CCF5CD82
:0E4AC60075C804D2CAF58475985075911522F2
:030023000247EFA2
:1047EF00C0E0C083C082C0D075D000C004C005C077
:0347FF0006C007EA
:10480200AF84758400900030E0C395815003E58148
:10481200F030982E900723E0FE04F0EEFD3395E091
:10482200FC74172DF58274003CF583E599F090072E
:1048320023E0C3648094994007E4F090025604F0A8
:09484200C298309902C2998F84DA
:10484B00D007D006D005D004D0D0D082D083D0E012
:01485B00322A
:104AF000758401759810E4F584438E02438920750E
:084B00008D94858D8BD28E226D
:0300A30002002632
:10002600C0E0C083C082C0D075D000C004C005C087
:0300360006C007FA
:10003900AF84758401900030E0C395815003E58158
:10004900F030983A90079DE0FE04F0EEFD3395E01C
:10005900FC74B82DF58274023CF583E599F090079C
:100069009DE0C3648094CB4007E4F090030704F05B
:10007900C298AE997584008E99D2997584018F843E
:10008900D007D006D005D004D0D0D082D083D0E01C
:010099003234
:104AD400E4F58475D10375D2FF75D30F75D4807551
:0C4AE400840175D2FF75D30F75D48022B9
:104A4400E4F58475D103F5BA75BC8075E880F5C7C3
:104A5400F5C674FFF5C5F5C4758402E4F5BA75BCF2
:0A4A64008175E880F5C675C4FF22D5
:104B1E00E4F584438E02758CAE758AFF438901D20B
:024B2E008C22D7
:03000B00021D795A
:101D7900C0E0C0F0C083C082C0D075D000C000C030
:0D1D890001C002C003C004C005C006C007B1
:101D9600900820E584F0758400758CAE758AFF90F6
:101DA6000030E0C395815003E581F0900308E0041C
:101DB600F0D21390027CE004F0700690027BE004FF
:101DC600F0900780E0FCA3E0FDA3E0FEA3E0FFE4C3
:101DD600FAF9F8EF2401FFEA3EFEE93DFDE83CFC96
:101DE600900780123EC19007AE123ECD0000000063
:101DF60075840090081BE4F075BB06900819E4F0A2
:101E0600A3F00090081AE004F07006900819E004A8
:101E1600F0900819E07004A3E0640A70E5C2EDD200
:101E2600ECC2ED20ECFD9007AEE0F8A3E0F9A3E0EC
:101E3600FAA3E0FBC000C001C002C003E5BF540F17
:101E4600FCADBEE4123C4FD003D002D001D000124C
:101E560039359007AE123EC190081BE004F0E064ED
:101E66000570959007AEE0FCA3E0FDA3E0FEA3E0BD
:101E7600FFE4FBFA79A07840123B2F9007AE123EA2
:101E8600C17FAB7E3E7D997C409007AEE0F8A3E033
:101E9600F9A3E0FAA3E0FB123A26A804A905AA06CC
:101EA600AB077F337ECF7D357C46123931C004C007
:101EB60005C006C0077F917E0B7DCE7C399007AEAC
:101EC600E0F8A3E0F9A3E0FAA3E0FB123A269007B4
:101ED600AEE0F8A3E0F9A3E0FAA3E0FB123A26D0BD
:101EE60003D002D001D0001239359007A6E0F8A33E
:101EF600E0F9A3E0FAA3E0FB1239319007AE123EF7
:101F0600C190025EE0F8A3E0F9A3E0FAA3E0FBC00B
:101F160000C001C002C0039007AEE0FCA3E0FDA331
:101F2600E0FEA3E0FF123931E4FBFA794878421269
:101F36003B2FD003D002D001D00012393590025E7B
:101F4600123EC17FBD7E3A7DC77C3890025EE0F8C6
:101F5600A3E0F9A3E0FAA3E0FB123A26A804A90538
:101F6600AA06AB07E4FFFE7D807C3F123931C00430
:101F7600C005C006C0077F2B7E987D517C3190023C
:101F86005EE0F8A3E0F9A3E0FAA3E0FB123A26909C
:101F9600025EE0F8A3E0F9A3E0FAA3E0FB123A261A
:101FA600D003D002D001D00012393590072D123E51
:101FB600C17F6F7E127D837C3A90072DE0F8A3E007
:101FC600F9A3E0FAA3E0FB123BCC500A90072D12CE
:101FD6003ECD3A83126F900772E0F8A3E0F9A3E0D2
:101FE600FAA3E0FB90025EE0FCA3E0FDA3E0FEA303
:101FF600E0FF123931E4FBFA79487842123A26902A
:10200600081C123EC190025EE0FCA3E0FDA3E0FEC8
:10201600A3E0FF900772123EC1900268E0F8A3E0C9
:10202600F9A3E0FAA3E0FBC000C001C002C0039020
:10203600081CE0FCA3E0FDA3E0FEA3E0FF1239319B
:10204600E4FBFA79487842123B2FD003D002D00144
:10205600D000123935900268123EC190051AE0F898
:10206600A3E0F9A3E0FAA3E0FBC000C001C002C0F0
:10207600039007AEE0FCA3E0FDA3E0FEA3E0FF12A1
:102086003931E4FBFA79487842123B2F7B9A7A99E8
:102096007999783E123B2FD003D002D001D000129E
:1020A600393590051A123EC1900245E0F8A3E0F9D1
:1020B600A3E0FAA3E0FB90051AE0FCA3E0FDA3E091
:1020C600FEA3E0FF123931E4FBFA79487842123A6E
:1020D6002690081C123EC190051AE0FCA3E0FDA361
:1020E600E0FEA3E0FF900245123EC1900735E0F8FE
:1020F600A3E0F9A3E0FAA3E0FBC000C001C002C060
:102106000390081CE0FCA3E0FDA3E0FEA3E0FF12A1
:102116003931E4FBFA79487842123B2F7B9A7A9957
:102126007999783E123B2FD003D002D001D000120D
:102136003935900735123EC175BB07900819E4F092
:10214600A3F00090081AE004F07006900819E00465
:10215600F0900819E07004A3E0640A70E5C2EDD2BD
:10216600ECC2ED20ECFDE5BF540FFCADBEE4123C25
:102176004F90081C123EC17F467E5E7D067C3F90D6
:10218600081CE0F8A3E0F9A3E0FAA3E0FB123A2664
:102196007B297AF4792C78C3123935C004C005C07E
:1021A60006C0077F977E387D727C3990081CE0F860
:1021B600A3E0F9A3E0FAA3E0FB123A2690081CE09C
:1021C600F8A3E0F9A3E0FAA3E0FB123A26D003D085
:1021D60002D001D00012393590081C123EC190077A
:1021E60089E0F8A3E0F9A3E0FAA3E0FBC000C00190
:1021F600C002C00390081CE0FCA3E0FDA3E0FEA320
:10220600E0FF123931E4FBFA79487842123B2F7B22
:102216009A7A997999783E123B2FD003D002D00151
:10222600D000123935900789123EC175840275BBFC
:1022360002900819E4F0A3F00090081AE004F07088
:1022460006900819E004F0900819E07004A3E06411
:102256000A70E5C2EDD2ECC2ED20ECFDACBEE41294
:102266003C5490081C123EC1900516E0F8A3E0F914
:10227600A3E0FAA3E0FBC000C001C002C0039008BF
:102286001CE0FCA3E0FDA3E0FEA3E0FF123931E46D
:10229600FBFA79487842123B2F7BCD7ACC79CC7801
:1022A6003D123A26D003D002D001D0001239359023
:1022B6000516123EC175840075BB02900819E4F03C
:1022C600A3F00090081AE004F07006900819E004E4
:1022D600F0900819E07004A3E0640A70E5C2EDD23C
:1022E600ECC2ED20ECFD7F237E497D927C3F90057C
:1022F60016E0F8A3E0F9A3E0FAA3E0FB123A267B86
:10230600257A49792A78C3123935C004C005C00632
:10231600C007E5BF540FFCADBEE4123C4FD003D05E
:1023260002D001D000123935900731123EC17F8AA2
:102336007E057DBE7C3D900731E0F8A3E0F9A3E081
:10234600FAA3E0FB123A267BB37A3C793278C312C1
:102356003935900731123EC175840275BB07900866
:1023660019E4F0A3F00090081AE004F07006900853
:1023760019E004F0900819E07004A3E0640A70E51F
:10238600C2EDD2ECC2ED20ECFDACBEE4123C5490A2
:10239600081C123EC190071EE0F8A3E0F9A3E0FA7C
:1023A600A3E0FBC000C001C002C00390081CE0FC13
:1023B600A3E0FDA3E0FEA3E0FF123931E4FBFA79C6
:1023C600487842123B2F7BCD7ACC79CC783D123AB5
:1023D60026D003D002D001D00012393590071E1244
:1023E6003EC175840075BB00900819E4F0A3F000A7
:1023F60090081AE004F07006900819E004F09008BE
:1024060019E07004A3E0640A70E5C2EDD2ECC2EDF7
:1024160020ECFD7F4B7E927D247C4090071EE0F8E9
:10242600A3E0F9A3E0FAA3E0FB123A267B497A92ED
:1024360079BF78C3123935C004C005C006C007E5A8
:10244600BF540FFCADBEE4123C4FD003D002D00106
:10245600D000123935900739123EC17FB87E207DF3
:10246600BB7C3D900739E0F8A3E0F9A3E0FAA3E0CE
:10247600FB123A26A804A905AA06AB077FE07E440C
:102486007D337C43123931900739123EC17584027F
:1024960075BB01900819E4F0A3F00090081AE00457
:1024A600F07006900819E004F0900819E07004A393
:1024B600E0640A70E5C2EDD2ECC2ED20ECFDACBEE4
:1024C600E4123C5490081C123EC1900724E0F8A385
:1024D600E0F9A3E0FAA3E0FBC000C001C002C0031C
:1024E60090081CE0FCA3E0FDA3E0FEA3E0FF123988
:1024F60031E4FBFA79487842123B2F7BCD7ACC79CE
:10250600CC783D123A26D003D002D001D000123941
:1025160035900724123EC175840075BB01900819D9
:10252600E4F0A3F00090081AE004F0700690081991
:10253600E004F0900819E07004A3E0640A70E5C2B4
:10254600EDD2ECC2ED20ECFD7FAC7EAA7D2A7C406C
:10255600900724E0F8A3E0F9A3E0FAA3E0FB123A1F
:1025660026A804A905AA06AB07E4FFFE7DC47C43A2
:10257600123931C004C005C006C007E5BF540FFCC0
:10258600ADBEE4123C4FD003D002D001D0001239C8
:102596003590073E123EC17F5B7E9A7DBB7C3D90A7
:1025A600073EE0F8A3E0F9A3E0FAA3E0FB123A261F
:1025B600A804A905AA06AB077F5A7E467D4C7C4334
:1025C60012393190073E123EC175840075BB0390E7
:1025D6000819E4F0A3F00090081AE004F0700690E1
:1025E6000819E004F0900819E07004A3E0640A708A
:1025F600E5C2EDD2ECC2ED20ECFD75840075BB059D
:10260600900819E4F0A3F00090081AE004F07006B0
:10261600900819E004F0900819E07004A3E0640A39
:1026260070E5C2EDD2ECC2ED20ECFD75840075BB01
:1026360004900819E4F0A3F00090081AE004F07082
:1026460006900819E004F0900819E07004A3E0640D
:102656000A70E5C2EDD2ECC2ED20ECFD200A1E9018
:10266600077A123ECDC0A0000090081C123ECD0095
:1026760000000090076CE4F0A3F00229DDC3900788
:102686006DE0949690076CE094004003022730E4D6
:10269600FFFE7D707C4290081CE0F8A3E0F9A3E001
:1026A600FAA3E0FB123BCC600E400C90081C123ED5
:1026B600CD427000008024E4FFFE7D707CC290084D
:1026C6001CE0F8A3E0F9A3E0FAA3E0FB123BCC5030
:1026D6000A90081C123ECDC270000090077AE0F8FE
:1026E600A3E0F9A3E0FAA3E0FBC000C001C002C06A
:1026F600037F9A7E997D197C3E90081CE0F8A3E042
:10270600F9A3E0FAA3E0FB123A26E4FBFA7948784B
:1027160042123B2FD003D002D001D000123935909F
:10272600077A123EC1D21A0229DD300D030228BFF4
:1027360090077EE0FCA3E0FDEC123C4FA804A9053F
:10274600AA06AB0790051AE0FCA3E0FDA3E0FEA3F2
:10275600E0FF123931E4FBFA798078BE123A26900E
:10276600081C123EC1900271E0FCA3E0FDA3E0FE4E
:10277600A3E0FF90081CE0F8A3E0F9A3E0FAA3E0C9
:10278600FB123BCC600740059002718024900766DF
:10279600E0FCA3E0FDA3E0FEA3E0FF90081CE0F848
:1027A600A3E0F9A3E0FAA3E0FB123BCC5014900798
:1027B60066E0FCA3E0FDA3E0FEA3E0FF90081C1288
:1027C6003EC190081CE0F8A3E0F9A3E0FAA3E0FB01
:1027D600900735E0FCA3E0FDA3E0FEA3E0FF12397D
:1027E6003190081C123EC1E4FFFE7D707C429008C9
:1027F6001CE0F8A3E0F9A3E0FAA3E0FB123BCC60EF
:102806000E400C90081C123ECD427000008024E45D
:10281600FFFE7D707CC290081CE0F8A3E0F9A3E0FF
:10282600FAA3E0FB123BCC500A90081C123ECDC224
:10283600700000301A36C21A7F9A7E997D997C3EC6
:1028460090081CE0F8A3E0F9A3E0FAA3E0FB123A33
:1028560026A804A905AA06AB0790076EE0FCA3E02C
:10286600FDA3E0FEA3E0FF123931804490077AE031
:10287600F8A3E0F9A3E0FAA3E0FBC000C001C002A0
:10288600C0037F9A7E997D997C3D90081CE0F8A351
:10289600E0F9A3E0FAA3E0FB123A26E4FBFA794852
:1028A6007842123B2FD003D002D001D00012393526
:1028B60090077A123EC10229DDE4FFFE7D507CC1FD
:1028C600900752E0F8A3E0F9A3E0FAA3E0FB12397F
:1028D60035E4FBFA798078BE123A2690081C123E3F
:1028E600C1E4FFFE7D707C4290081CE0F8A3E0F98D
:1028F600A3E0FAA3E0FB123BCC600E400C90081C50
:10290600123ECD427000008024E4FFFE7D707CC242
:1029160090081CE0F8A3E0F9A3E0FAA3E0FB123B61
:10292600CC500A90081C123ECDC270000090077A67
:10293600E0F8A3E0F9A3E0FAA3E0FBC000C001C001
:1029460002C0037F9A7E997D997C3D90081CE0F831
:10295600A3E0F9A3E0FAA3E0FB123A26E4FBFA7936
:10296600487842123B2FD003D002D001D000123952
:102976003590077A123EC1900735E0FCA3E0FDA32F
:10298600E0FEA3E0FF90081C123EC1E4FFFE7D704E
:102996007C4290081CE0F8A3E0F9A3E0FAA3E0FB70
:1029A600123BCC600E400C90081C123ECD427000CB
:1029B600008024E4FFFE7D707CC290081CE0F8A332
:1029C600E0F9A3E0FAA3E0FB123BCC500A90081C06
:1029D600123ECDC2700000E4FFFE7DA07C41900750
:1029E6007AE0F8A3E0F9A3E0FAA3E0FB123BCC609F
:1029F6000E400C90077A123ECD41A000008024E4E0
:102A0600FFFE7DA07CC190077AE0F8A3E0F9A3E081
:102A1600FAA3E0FB123BCC500A90077A123ECDC1D6
:102A2600A000007F9A7E997D997C3E90081CE0F874
:102A3600A3E0F9A3E0FAA3E0FB123A2690077AE0B6
:102A4600F8A3E0F9A3E0FAA3E0FB12393590076E8C
:102A5600123EC1E4FFFE7DA07C4190076EE0F8A324
:102A6600E0F9A3E0FAA3E0FB123BCC600E400C9029
:102A7600076E123ECD41A000008024E4FFFE7DA03B
:102A86007CC190076EE0F8A3E0F9A3E0FAA3E0FBAF
:102A9600123BCC500A90076E123ECDC1A00000201A
:102AA6000A2690026D123ECD0000000090081C120E
:102AB6003ECD00000000900296E4F0900264123EC3
:102AC600CDC1700000022DF6C390076DE09496907C
:102AD600076CE094004003022B93A3E004F0700619
:102AE60090076CE004F0900296E4F090026DE0F836
:102AF600A3E0F9A3E0FAA3E0FBC000C001C002C056
:102B0600037FCD7ECC7DCC7C3D90026DA3A3A3E05C
:102B1600123A26C004C005C006C007900739E0F87F
:102B2600A3E0F9A3E0FAA3E0FB900731E0FCA3E001
:102B3600FDA3E0FEA3E0FF123931D003D002D0019D
:102B4600D000123931E4FBFA79487842123B2FD093
:102B560003D002D001D00012393590026D123EC169
:102B6600900296E0FC123C54A804A905AA06AB07FD
:102B760090026DE0FCA3E0FDA3E0FEA3E0FF1239A6
:102B860031E4FBFAF97840123A26022D5A900747AB
:102B9600E0900296F0D3648094AA4005742AF080EF
:102BA6000E900296E0C364809456500374D6F07F6C
:102BB600567E557DAD7C41900752E0F8A3E0F9A31F
:102BC600E0FAA3E0FB123BCC4003022CC490075270
:102BD600E0FCA3E0FDA3E0FEA3E0FF90081C123E8C
:102BE600C17FE47E387D5E7C4190081CE0F8A3E05E
:102BF600F9A3E0FAA3E0FB123BCC500A90081C12A2
:102C06003ECD415E38E47FE47E387D5E7CC190082F
:102C16001CE0F8A3E0F9A3E0FAA3E0FB123935E4DF
:102C2600FBFA79107842123A267B907AE379F878A3
:102C360040123B2FE4FBFA79C078401239359008F0
:102C46001C123EC1900296E0FC123C5490081CE017
:102C5600F8A3E0F9A3E0FAA3E0FB123BCC501090F6
:102C6600081CE0FCA3E0FDA3E0FEA3E0FF80479084
:102C7600081CE0FCA3E0FDA3E0FEA3E0FF123C3944
:102C8600C004C005C006C007900296E0FC123C5482
:102C9600A804A905AA06AB07D007D006D005D0041C
:102CA600123BCC501990081CE0FCA3E0FDA3E0FE0B
:102CB600A3E0FF123C39123C88900296EFF0900296
:102CC6006DE0F8A3E0F9A3E0FAA3E0FBC000C001C1
:102CD600C002C0037FCD7ECC7DCC7C3D90026DA32F
:102CE600A3A3E0123A26C004C005C006C007900799
:102CF60039E0F8A3E0F9A3E0FAA3E0FB900731E09E
:102D0600FCA3E0FDA3E0FEA3E0FF123931D003D01F
:102D160002D001D000123931E4FBFA794878421228
:102D26003B2FD003D002D001D00012393590026D6E
:102D3600123EC1900296E0FC123C54A804A905AAD2
:102D460006AB0790026DE0FCA3E0FDA3E0FEA3E066
:102D5600FF12393190081C123EC1900264E0F8A3BC
:102D6600E0F9A3E0FAA3E0FBC000C001C002C00383
:102D76007FCD7ECC7D4C7C3D90081CE0F8A3E0F92D
:102D8600A3E0FAA3E0FB123A26E4FBFA794878427C
:102D9600123B2FD003D002D001D000123935900259
:102DA60064123EC1E4FFFE7DC87C41900264E0F8F7
:102DB600A3E0F9A3E0FAA3E0FB123BCC600E400CC3
:102DC600900264123ECD41C800008024E4FFFE7DDF
:102DD600C87CC1900264E0F8A3E0F9A3E0FAA3E09E
:102DE600FB123BCC500A900264123ECDC1C80000D3
:102DF600E4FFFE7DC87C41900748E0F8A3E0F9A314
:102E0600E0FAA3E0FB123BCC600E400C90074812A0
:102E16003ECD41C800008024E4FFFE7DC87CC19001
:102E26000748E0F8A3E0F9A3E0FAA3E0FB123BCCE5
:102E3600500A900748123ECDC1C800007F587E391F
:102E46007DB47C3C900748E0F8A3E0F9A3E0FAA340
:102E5600E0FB123A26E4FBFA79C0783F1239357B5B
:102E6600007A5079C37846123A26123C889008199F
:102E7600EEF0FCA3EFF0FD7F71124A937F587E3986
:102E86007DB47C3C900748E0F8A3E0F9A3E0FAA300
:102E9600E0FB123A26A804A905AA06AB07E4FFFE42
:102EA6007DC07C3F1239317B007A5079C378461257
:102EB6003A26123C88900819EEF0FCA3EFF0FD7F4D
:102EC60072124A937FCA7E2F7D967C3C900776E0ED
:102ED600F8A3E0F9A3E0FAA3E0FB123A267B117A05
:102EE600117991783F1239357B007A5079C378464B
:102EF600123A26123C88900819EEF0FCA3EFF0FD7A
:102F06007F73124A937FAE7E477D617C3C90076E4D
:102F1600E0F8A3E0F9A3E0FAA3E0FB123A267B6609
:102F26007A6679AE783F1239357B007A5079C37864
:102F360046123A26123C88900819EEF0FCA3EFF0F0
:102F4600FD7F74124A937F587E397D347C3C90070E
:102F56005EE0F8A3E0F9A3E0FAA3E0FB123A26E468
:102F6600FBFA79C0783F1239357B007A5079C378FD
:102F760046123A26123C88900819EEF0FCA3EFF0B0
:102F8600FD7F75124A937F587E397D347C3C9007CD
:102F96005EE0F8A3E0F9A3E0FAA3E0FB123A26A864
:102FA60004A905AA06AB07E4FFFE7DC07C3F1239E3
:102FB600317B007A5079C37846123A26123C8890C3
:102FC6000819EEF0FCA3EFF0FD7F76124A937FAE70
:102FD6007E477D617C3D900756E0F8A3E0F9A3E0CB
:102FE600FAA3E0FB123A26E4FBFA79C0783F1239DD
:102FF600357B007A5079C37846123A26123C88907F
:103006000819EEF0FCA3EFF0FD7F77124A937F5884
:103016007E397D347C3C90074EE0F8A3E0F9A3E0CE
:10302600FAA3E0FB123A267B337A337973783F12A0
:1030360039357B007A5079C37846123A26123C8895
:10304600900819EEF0FCA3EFF0FD7F78124A937F0B
:10305600587E397D347C3C900728E0F8A3E0F9A33C
:10306600E0FAA3E0FB123A267B337A337973783F92
:103076001239357B007A5079C37846123A26123CCB
:1030860088900819EEF0FCA3EFF0FD7F79124A93C1
:103096007F587E397D347C3C900743E0F8A3E0F905
:1030A600A3E0FAA3E0FB123A267B337A33797378EE
:1030B6003F1239357B007A5079C37846123A261288
:1030C6003C88900819EEF0FCA3EFF0FD7F7A124AD7
:0730D60093900820E0F5844F
:1030DD00D007D006D005D004D003D002D001D00047
:0B30ED00D0D0D082D083D0F0D0E032F1
:104A0C00E4F584C2B3C2B5D2B6D2B4FDFC000DBD80
:104A1C0000010CED64644C70F475840F8FE8AFA04A
:104A2C007C00AD07EDFEADF8E42DFDEC3EFCE4F5AD
:074A3C0084C2B6AE04AF0511
:014A43002250
:104A9300E4F584C2B6C2B4D2B375840F8FE8EDF5E2
:104AA300C8ECF5D8E4F584D2B5FF000FEFB40FFAE4
:034AB300C2B52267
:094B4C00FC123E62EF4480FFEC14
:014B5500223D
:10392E00023CF4E86480F8E933E83360110460F097
:10393E00ED33EC337009E8FCE9FDEAFEEBFF2204FF
:10394E0060DED3EB9FEA9EE99DE8C2E78CF0C2F7FA
:10395E0095F0400CE8CCF8E9CDF9EACEFAEBCFFBC6
:10396E00123CBF85D0F05804700320D5B3E8047024
:10397E00075002B2D5023CFE92D5EC0460F7E4CCBF
:10398E00C0E0C398F8603B94186008400DD0E0FB8F
:10399E00023CD6E4FBFAC9FC8028E830E406E4C910
:1039AE00FBE4CAFCE830E305E4C9CACBFCE85407E3
:1039BE006010F8C3E913F9EA13FAEB13FBEC13FCEE
:1039CE00D8F130F52FC3E49CFCEF9BFFEE9AFEED91
:1039DE0099FDD0E0FBEF4E4D4C701222DB03023C02
:1039EE00FBEC2CFCEF33FFEE33FEED33FDED30E759
:1039FE00EB023CD6EF2BFFEE3AFEED39FDD0E0FBAD
:103A0E0050130BBB0003023CFEED13FDEE13FEEF55
:083A1E0013FFEC13FC023CD67F
:103A2600EC4D6011E8497017ED33EC3304600DE49A
:103A3600FCFFFEFD22E933E8330470F8023CF41281
:103A46003CBF58046009E4CC248150062850090282
:103A56003CFE284003023CFBC0E0EB4A7044B980C0
:103A660006D0E0FB023CEAEF4E701CBD8008EBFF7F
:103A7600EAFEE9FD80EBE98DF0A4FEE5F0023B0FDE
:103A8600E9CDF9EAFEEBFFEF89F0A4FCE5F0CE897B
:103A9600F0A42EFFE435F0CD89F0A42DFEE435F038
:103AA6008067EF4E7005BD80D780C3EF8BF0A4AC66
:103AB600F0EE8BF0A42CFCE435F0F8EF8AF0A42CA1
:103AC600E5F038FCE433CB8DF0A42CFCE5F03BF8B4
:103AD600EE8AF0A42CFCE5F038F8E433CF89F0A4A4
:103AE6002CFCE5F038CF3400CE89F0A42FFFE5F0AA
:103AF6003EFEE433C98DF0A42EFEE5F039CD8AF002
:103B0600A42FFFE5F03EFEE43DFD33D0E0FB500779
:103B16000BBB000F023CFEEC2CFCEF33FFEE33FE3A
:063B2600ED33FD023CD668
:103B2C00023CFEEC5D046005E859047003023CF4B1
:103B3C00123CBF580460F6EC4860F2EC7004FDFED9
:103B4C00FF22C860DB2481C85009C398600250066C
:103B5C00023CFB9850CAF582E9294B4A7005AB82AE
:103B6C00023CEA75F0007C1A7880C3EF9BEE9AED6C
:103B7C0099400DC3EF9BFFEE9AFEED99FDE842F0E4
:103B8C00DC23ACF0D0E0FFD0E0FED0E0FDAB822037
:103B9C00E7101BEB60BAEC2CFCEF33FFEE33FEEDC1
:103BAC0033FD023CD6E803F830E705C0F075F000B1
:103BBC00EF2FFFEE33FEED33FD40B830E7C280AAA5
:103BCC0074F8CC6480CCC86480C8F582046043C3AC
:103BDC00EB9FF5F0EA9E42F0E99D42F0E89C45F03F
:103BEC0060305018E5825FFFE582F42B5582FB5064
:103BFC00210ABA001D09B90019088016E5825BFB81
:103C0C00E582F42F5582FF50090EBE00050DBD0054
:103C1C00010CC3EB9FF5F0EA9E42F0E99D42F0E8FF
:0D3C2C009C45F06007CC4820E701B3EC2276
:103C3900ED33EC33600A047003BD8004ECB2E7FC99
:013C49002258
:103C4A0075F020800E75F010800575F0087D007EF5
:103C5A00007F003392D530D503123E1AEC33401060
:103C6A00EF33FFEE33FEED33FDEC33FCD5F0ED22FE
:0E3C7A00E5F0247EA2D513CC92E7CDCEFF223A
:103C8800EDD2E7CD33EC3392D524814006E4FFFE34
:103C9800FDFC22FCE4CFCECDCC24E0501174FF8093
:103CA800EDC3CC13CCCD13CDCE13CECF13CF047030
:073CB800F030D5DE023E1AD8
:0D4B3F00ED33EC3360065004EC6480FC2282
:10461A00023CF422EDA2E7D2E7F9EC3340F260F370
:10462A00B4FF08ED547F70E8023CFEF82481C2E032
:10463A00C0E0F40428FAC313FCED92E7FD90080DDC
:10464A00123EC1EEA2E7E9BA7F02C3133400940016
:10465A00FA75F091A4E5F013F494FE8AF0A433E518
:10466A00F033248CD313FDE492E7FE7F007C3F7580
:10467A008302ECC0E0F8EDC0E0F9EEC0E0FAEFC06A
:10468A00E0FB8583F090080D123E8985F083123B8A
:10469A002FD0E0FBD0E0FAD0E0F9D0E0F8123935BB
:1046AA00ED6480FD30E7011CD583C7ED33CC33F8C8
:0C46BA00D0E0A2E71328C313CC13FD22AC
:1046C60090080D123EC1900811E0F8A3E0F9A3E0AE
:1046D600FAA3E0FB90080DE0FCA3E0FDA3E0FEA337
:1046E600E0FF123B2F12437A90080D123EC190084C
:1046F60011E030E75990080DE0FCA3E0FDA3E0FED1
:10470600A3E0FFECC0E0EDC0E0EEC0E0EFC0E0E407
:10471600FFFEFDFC90080DE0F8A3E0F9A3E0FAA384
:10472600E0FB123BCC7BDB600250087A0F794978BC
:104736004080067A0F794978C0D0E0FFD0E0FED0FD
:10474600E0FDD0E0FC12393590080D123EC190080C
:0D4756000DE0FCA3E0FDA3E0FEA3E0FF22C8
:104066003A70FA83BCAAE9E43E81E0F8BF9DE9E62E
:104076003F80000039283C1ABB9969663DA335E3A9
:10408600BF255DE73FC90FDB418DDBCCC44936EE6A
:1040960045C9913FC5B0F83D3F800000C317F534D0
:1040A600452FFA73C60AFDDD12416F04A2E1921D87
:1040B6001420E0159040667404123D0980301241C8
:1040C6006F30E102B21D20E0EBA883A98290080DB3
:1040D600123EC18982888390407A7404123D098514
:1040E60082F090080D123EA585F082123A26ED4C1C
:1040F6006007301D04EC6480FC2212416FC0E0A80A
:1041060083A98290080D123EC18982888390409EC1
:104116007403123D098582F090080D123EA585F0C4
:1041260082123A2690080DE0CCF0A3E0CDF0A3E091
:10413600CEF0A3E0CFF090408E7403123D09D082FA
:104146008582F090080D123EA585F082E58230E06A
:1041560007123B2FB21D8096EFCBFFEECAFEEDC9CC
:10416600FDECC8FC123B2F8085ED33EC547FCC333D
:10417600921D24605007D0E0D0E0023CF47B837AA5
:10418600F97922783E123A26EDF933ECF833248198
:104196005011EFFBEEFA123C88123C4AECB2E7FCF7
:1041A600123935ED33EC33602F2403F8C313FCEDDD
:1041B60092E7FDE82481E4501FECF8EDF9EEFAEF02
:1041C600FB123C88EF04C2E0FCF582123C54ECB2D0
:1041D600E7FC123935E58203FAED33EC3360071458
:0841E60013FCED92E7FDEA2253
:103CBF00E9D2E7C933E833F892D5EDD2E7CD33EC4B
:073CCF0033FC5002B2D522C4
:103CD600EC30E7100FBF000C0EBE00080DBD00044F
:103CE6000BEB6014A2D5EB13FCED92E7FD2274FFFB
:103CF600FCFDFEFF22E480F8A2D574FF13FC7D8054
:033D0600E480EF67
:103D0900C0E0EFFBEEFAEDF9ECF8123A26D0E0F557
:103D1900F0EFFBEEFAEDF9ECF8123E95A3A3A3A39D
:103D2900E8C0E0E9C0E0EAC0E0EBC0E0C0F0123A68
:103D390026123EB1A3A3A3A3123935D0F0D0E0FBDC
:0D3D4900D0E0FAD0E0F9D0E0F8D5F0D422B7
:10435A00BE1249253E4CCCCDBEAAAAAB3F80000076
:10436A003E7ADBB03EED63383F24BC7D3F490FDB2C
:10437A00ED33ECC2E7CC33921DB4FF13ED547F60EA
:10438A0003023CF47FDB7E0F7DC97C3F02446FC28F
:10439A001EC3947F401E7007EDD2E794904015EF3C
:1043AA00FBEEFAEDF9ECF87F007E007D807C3F128F
:1043BA003B2FD21EED33EC33248430E705E4C0E012
:1043CA00806B04FAEDD2E754F0C333DAFD540734B4
:1043DA00002323C0E0CCC0E0F8EDC0E0F9EEC0E075
:1043EA00FAEFC0E0FBE4123C54EC24FEFC90081502
:1043FA00123EC1123A267B007A007980783F123940
:10440A0035900815E0B2E7CCF0A3E0CDF0A3E0CEFA
:10441A00F0A3E0CFF0D0E0FBD0E0FAD0E0F9D0E0B2
:10442A00F8123935900815123EA5123B2F9008153F
:10443A00123EC190435A7403123D09900815123E68
:10444A00A5123A26D0E0600F2466F582E43443F5DB
:10445A0083123EB1123935301E0B7BDB7A0F79C9D4
:10446A0078BF123935ED33EC336006ECA21D92E7C2
:02447A00FC2222
:10476F000200A6E493A3F8E493A34003F68001F2BA
:10477F0008DFF48029E493A3F85407240CC8C3334B
:10478F00C4540F4420C8834004F456800146F6DF1A
:10479F00E4800B0102040810204080904921E47E40
:1047AF00019360BCA3FF543F30E509541FFEE4930F
:1047BF00A360010ECF54C025E060A840B8E493A3D6
:1047CF00FAE493A3F8E493A3C8C582C8CAC583CA01
:1047DF00F0A3C8C582C8CAC583CADFE9DEE780BEB9
:014976000040
:103D5600BB010CE58229F582E5833AF583E0225022
:103D660006E92582F8E622BBFE06E92582F8E2226C
:0D3D7600E58229F582E5833AF583E4932286
:103D8300EF8DF0A4A8F0CF8CF0A428CE8DF0A42E54
:023D9300FE220E
:103D9500C2D5EC30E709B2D5E4C39DFDE49CFCEE49
:103DA50030E715B2D5E4C39FFFE49EFE123F17C36B
:103DB500E49DFDE49CFC8003123F1730D507C3E466
:063DC5009FFFE49EFE22B8
:103DCB00E88FF0A4CC8BF0A42CFCE98EF0A42CFC97
:103DDB008AF0EDA42CFCEA8EF0A4CDA8F08BF0A415
:103DEB002DCC3825F0FDE98FF0A42CCD35F0FCEB74
:103DFB008EF0A4FEA9F0EB8FF0A4CFC5F02ECD3939
:0F3E0B00FEE43CFCEAA42DCE35F0FDE43CFC22A5
:1049C800C2D5E830E70FB2D5E4C39BFBE49AFAE41A
:1049D80099F9E498F8EC30E717B2D51249FE123F7E
:1049E800D4E4C39BFBE49AFAE499F9E498F88003C9
:1049F800123FD430D50DE4C39FFFE49EFEE49DFD35
:044A0800E49CFC220C
:0E3E1A00C3E49FFFE49EFEE49DFDE49CFC22B9
:103E2800EB9FF5F0EA9E42F0E99D42F0EC6480C811
:063E380064809845F022B1
:103E3E00EB9FF5F0EA9E42F0E99D42F0E89C45F0DA
:013E4E002251
:103E4F00E8600FECC313FCED13FDEE13FEEF13FF51
:033E5F00D8F12275
:103E6200E86010ECA2E713FCED13FDEE13FEEF1376
:043E7200FFD8F02263
:103E7600E8600FEFC333FFEE33FEED33FDEC33FCAA
:033E8600D8F1224E
:0C3E8900E0FCA3E0FDA3E0FEA3E0FF22AC
:103E9500E493FC740193FD740293FE740393FF2273
:0C3EA500E0F8A3E0F9A3E0FAA3E0FB22A0
:103EB100E493F8740193F9740293FA740393FB2267
:0C3EC100ECF0A3EDF0A3EEF0A3EFF02274
:103ECD00A8828583F0D083D082123EE4123EE412A4
:103EDD003EE4123EE4E473E493A3C583C5F0C583C9
:103EED00C8C582C8F0A3C583C5F0C583C8C582C83F
:013EFD0022A2
:10447C0090080DEBF0A3EAF0A3E9F090080DE0FB37
:10448C00A3E0FAA3E0F9123EFEFF12000E500C90CE
:10449C00080EE475F001123F6C80E0D21D90080DFF
:1044AC00E0FBA3E0FAA3E0F9123EFEFF642B6004EC
:1044BC00EFB42D1D90080DE0FBA3E475F001123F45
:1044CC0082A9F0FA123EFE642D6003D38001C392E0
:1044DC001DE4900810F0A3F090080DE0FBA3E0FAA7
:1044EC00A3E0F9123EFEFF124B30504290080DE053
:1044FC00FBA3E0FAA3E0F9123EFEFF3395E0FEEFDA
:10450C0024D0FBEE34FFFA900810E0FEA3E0FF7C11
:10451C00007D0A123D83EF2BFFEE3A900810F0A3BA
:10452C00EFF090080EE475F001123F6C80AA301D7C
:10453C000A900810E0FEA3E0FF800F900810E0FE48
:0B454C00A3E0FFC3E49FFFE49EFE22FB
:103EFE00BB010689828A83E0225002E722BBFE02C2
:093F0E00E32289828A83E49322F4
:103F1700BC000BBE0029EF8DF084FFADF022E4CC8E
:103F2700F875F008EF2FFFEE33FEEC33FCEE9DEC57
:103F3700984005FCEE9DFE0FD5F0E9E4CEFD22ED9D
:103F4700F8F5F0EE8420D21CFEADF075F008EF2FE7
:103F5700FFED33FD4007985006D5F0F222C398FDD8
:053F67000FD5F0EA2275
:103F6C00C5F0F8A3E028F0C5F0F8E58215827002E0
:063F7C001583E038F0227D
:103F8200A3F8E0C5F025F0F0E582158270021583F2
:063F9200E0C838F0E8224F
:103F980075F008758200EF2FFFEE33FECD33CDCCE0
:103FA80033CCC58233C5829BED9AEC99E582984063
:103FB8000CF582EE9BFEED9AFDEC99FC0FD5F0D640
:103FC800E4CEFBE4CDFAE4CCF9A88222B800C1B96A
:103FD8000059BA002DEC8BF084CFCECDFCE5F0CBA8
:103FE800F97818EF2FFFEE33FEED33FDEC33FCEBE1
:103FF80033FB10D703994004EB99FB0FD8E5E4F99C
:10400800FA227818EF2FFFEE33FEED33FDEC33FC88
:10401800C933C910D7059BE99A4007EC9BFCE99A7C
:10402800F90FD8E0E4C9FAE4CCFB2275F010EF2FC1
:10403800FFEE33FEED33FDCC33CCC833C810D707C1
:104048009BEC9AE899400AED9BFDEC9AFCE899F8FC
:0E4058000FD5F0DAE4CDFBE4CCFAE4C8F9228F
:0F4B3000EFC394304007EF943A50028001C32244
:10000E00EFC394094005EF940E4004EFB42003D3E0
:04001E008001C32278
:00000001FF
